:100000000C9498030C94B5030C94B5030C940B2931
:100010000C9472120C94B5030C94B5030C94B503B4
:100020000C94B5030C9454150C94B5030C948116E0
:100030000C94B5030C94B5030C94B5030C94B50360
:100040000C94B5030C94B5030C9404120C94D411C5
:100050000C94B5030C94B5030C94B5030C94B50340
:100060000C94972F0C94B503F11AF11AF11A081B8E
:100070001D1B261B2F1B381B411B581B641B6D1B94
:10008000761B7F1B911BA51BB71BCD1BDF1BE81B22
:10009000F11BFA1B051C084AD73B3BCE016E84BC02
:1000A000BFFDC12F3D6C74319ABD56833DDA3D00D2
:1000B000C77F11BED9E4BB4C3E916BAAAABE00001B
:1000C00000803F05A84CCDB2D44EB93836A9020CF9
:1000D00050B9918688083CA6AAAA2ABE00000080D2
:1000E0003F73657269616C5F7265616428290D0AEE
:1000F000003E0D0A002C0057506F733A002C002C64
:100100004D506F733A003C436865636B003C416C33
:1001100061726D003C486F6D65003C486F6C640017
:100120003C52756E003C5175657565003C49646CC8
:1001300065000D0A003D00244E005D0D0A002046BA
:1001400000205400204D3800204D3900204D35004E
:10015000204D3400204D3300204D3200204D310021
:10016000204D3000204739340020473933002047E4
:1001700039310020473930002047323100204732E2
:1001800030002047313900204731380020473137CF
:10019000002047005B473830005B4733005B473245
:1001A000005B4731005B4730005D0D0A002C005BAF
:1001B0004739323A005D0D0A002C0033303A0032E4
:1001C000383A0035393A0035383A0035373A003593
:1001D000363A0035353A0035343A005B470020287E
:1001E000686F6D696E672070756C6C2D6F66662C1C
:1001F000206D6D290D0A002028686F6D696E6720DB
:100200006465626F756E63652C206D736563290D7F
:100210000A2432323D002028686F6D696E672073B2
:1002200065656B2C206D6D2F6D696E290D0A24326A
:10023000313D002028686F6D696E672066656564D2
:100240002C206D6D2F6D696E290D0A2432303D0012
:10025000290D0A2431393D002028686F6D696E67C9
:100260002064697220696E76657274206D61736BAB
:100270002C20696E743A002028686F6D696E6720C3
:100280006379636C652C20626F6F6C290D0A2431D1
:10029000383D00202868617264206C696D69747350
:1002A0002C20626F6F6C290D0A2431373D00202805
:1002B000696E76657274207374657020656E616214
:1002C0006C652C20626F6F6C290D0A2431363D005D
:1002D00020286175746F2073746172742C20626FB2
:1002E0006F6C290D0A2431353D0020287265706F2E
:1002F000727420696E636865732C20626F6F6C295D
:100300000D0A2431343D0020286E2D646563696D2B
:10031000616C732C20696E74290D0A2431333D0001
:1003200020286E2D61726320636F72726563746939
:100330006F6E2C20696E74290D0A2431323D002025
:10034000286172632C206D6D2F7365676D656E7407
:10035000290D0A2431313D0020286A756E637469C5
:100360006F6E20646576696174696F6E2C206D6DA7
:10037000290D0A2431303D002028616363656C65D6
:10038000726174696F6E2C206D6D2F7365635E32C0
:10039000290D0A24393D0020287374657020696492
:1003A0006C652064656C61792C206D736563290D23
:1003B0000A24383D00290D0A24373D002028737493
:1003C000657020706F727420696E76657274206D2E
:1003D00061736B2C20696E743A0020286465666135
:1003E000756C74207365656B2C206D6D2F6D696E57
:1003F000290D0A24363D00202864656661756C74F9
:1004000020666565642C206D6D2F6D696E290D0A5F
:1004100024353D002028737465702070756C7365F9
:100420002C2075736563290D0A24343D0020287A39
:100430002C20737465702F6D6D290D0A24333D00D7
:100440002028792C20737465702F6D6D290D0A2476
:10045000323D002028782C20737465702F6D6D2933
:100460000D0A24313D0024303D00242420287669E3
:100470006577204772626C2073657474696E677368
:10048000290D0A24232028766965772023207061AE
:1004900072616D6574657273290D0A244720287690
:1004A0006965772070617273657220737461746519
:1004B000290D0A244E2028766965772073746172AD
:1004C00074757020626C6F636B73290D0A24783D1C
:1004D00076616C7565202873617665204772626C61
:1004E0002073657474696E67290D0A244E783D6C1B
:1004F000696E652028736176652073746172747506
:100500007020626C6F636B290D0A24432028636896
:1005100065636B2067636F6465206D6F6465290D8B
:100520000A245820286B696C6C20616C61726D2004
:100530006C6F636B290D0A2448202872756E206841
:100540006F6D696E67206379636C65290D0A7E2083
:10055000286379636C65207374617274290D0A21B4
:1005600020286665656420686F6C64290D0A3F2049
:100570002863757272656E74207374617475732963
:100580000D0A6374726C2D7820287265736574206F
:100590004772626C290D0A000D0A4772626C2030A6
:1005A0002E3863205B27242720666F722068656CD5
:1005B000705D0D0A005D0D0A0044697361626C652F
:1005C0006400456E61626C65640043617574696FB7
:1005D0006E3A20556E6C6F636B6564002724482764
:1005E0007C2724582720746F20756E6C6F636B0016
:1005F000526573657420746F20636F6E74696E75D5
:1006000065005B002E204D506F733F0D0A00416264
:100610006F727420647572696E67206379636C65AC
:100620000048617264206C696D697400414C4152EC
:100630004D3A20000D0A004C696E65206F76657298
:10064000666C6F7700416C61726D206C6F636B003C
:1006500042757379206F7220717565756564004508
:100660004550524F4D2072656164206661696C2E61
:10067000205573696E672064656661756C747300DC
:1006800056616C7565203C20332075736563005698
:10069000616C7565203C20302E30005365747469A0
:1006A0006E672064697361626C656400496E76618F
:1006B0006C69642073746174656D656E74004D6F50
:1006C00064616C2067726F75702076696F6C6174FD
:1006D000696F6E00496E76616C696420726164694D
:1006E000757300556E737570706F727465642073E6
:1006F000746174656D656E740045787065637465CA
:100700006420636F6D6D616E64206C6574746572D6
:1007100000426164206E756D62657220666F726D55
:100720006174006572726F723A20006F6B0D0A007F
:1007300011241FBECFEFD8E0DEBFCDBF11E0A0E097
:10074000B1E0E8E2FBE602C005900D92A230B107ED
:10075000D9F717E0A2E0B1E001C01D92A034B107C3
:10076000E1F70E94B7030C9492350C9400000F93AC
:100770001F930E94A1110E94572F0E940D1D0E94DD
:100780005316789480E1E5E0F6E0DF011D928A954A
:10079000E9F781E0809305068093060606E011E004
:1007A00080910506882399F10E94FF110E94922FE3
:1007B0000E942C250E9437110E9419150E94651174
:1007C0000E9489110E9482260E9426160E948A2574
:1007D000109205061092070680912D07982F81FF31
:1007E00002C01093140680910606813021F494FF14
:1007F00002C00093060680910606863021F482E04E
:100800000E94B22A04C0109206060E940F130E9492
:10081000AE120E947914C4CF8091070684FD15C0E2
:10082000809107068061809307060E946B110E94E9
:100830008E11809106068350833038F4809107062C
:100840008062809307060E943A160895EF92FF9205
:100850000F931F93CF93DF937B018C0120E030E057
:1008600040EA51E40E9458340E9455320E94EC3113
:10087000EB010E940F25C801B70120E030E04AE7F4
:1008800054E40E9458347B018C0182E390E0C89FBD
:10089000B001C99F700DD89F700D112480E090E0C9
:1008A0000E9418329B01AC01C801B7010E949E3022
:1008B0000E9455320E94EC31DC01CB010E944025A0
:1008C00000E911E00EC00E94AE1280910506882357
:1008D00051F484EF91E0F8013197F1F70197D9F7DE
:1008E0002197209781F7DF91CF911F910F91FF9072
:1008F000EF9008954F925F926F927F928F92AF9296
:10090000BF92CF92DF92EF92FF920F931F93DF93EC
:10091000CF9300D000D0CDB7DEB72B013C012983A7
:100920003A834B835C83809106068730F9F00E94FE
:10093000AE12809105068823C9F40E94931D882376
:10094000B1F7C301B20129813A814B815C810E94D8
:10095000242180910606882319F482E080930606FC
:1009600080911406882311F00E94D1150F900F90EA
:100970000F900F90CF91DF911F910F91FF90EF900B
:10098000DF90CF90BF90AF908F907F906F905F90EF
:100990004F9008952F923F924F925F926F927F9265
:1009A0008F929F92AF92BF92CF92DF92EF92FF927F
:1009B0000F931F9385E08093060680916B00817FE3
:1009C00080936B000E94B1280E94AE1280910506B0
:1009D000882309F070C08CE0E8E0F6E0DF011D92AA
:1009E0008A95E9F70E948A251092060630912E0713
:1009F000232F35FD02C06FEF01C061E026FD03C06B
:100A0000DD24DA9402C0DD24D39437FD03C0CC2466
:100A1000CA9402C0CC24C394E0903907F0903A07FE
:100A200000913B0710913C07772767FD7095872F52
:100A3000972F0E941A32A80197010E9458341B0177
:100A40002C016D2D772767FD7095872F972F0E94BA
:100A50001A32A80197010E9458343B014C016C2DB9
:100A6000772767FD7095872F972F0E941A32A8016C
:100A700097010E9458347B018C01A0903307B090FD
:100A80003407C0903507D0903607C201B101A401E8
:100A9000930188240E947A040E94D1150E940F2598
:100AA0000E948A2580912D0783FF05C080916B00ED
:100AB0008E6080936B001F910F91FF90EF90DF90FD
:100AC000CF90BF90AF909F908F907F906F905F90EE
:100AD0004F903F902F9008952F923F924F925F92A8
:100AE0006F927F928F929F92AF92BF92CF92DF923E
:100AF000EF92FF920F931F93DF93CF93CDB7DEB7A3
:100B0000CE54D0400FB6F894DEBF0FBECDBF3C012F
:100B10007EAF6DAF21965FAF4EAF219722962FAF7C
:100B2000229723960FAF23972496EFAE249728960B
:100B3000ACAEBDAECEAEDFAE289729968FAE29976C
:100B4000E22EFF24EE0CFF1CEE0CFF1C4E0D5F1D71
:100B50005CAF4BAFDA012D903D904D905C90FC0165
:100B6000EE0DFF1DC201B10120813181428153810F
:100B70000E949F3069AB7AAB8BAB9CAB10E0000F4F
:100B8000111F000F111F2196EEADFFAD2197E00F51
:100B9000F11FFAAFE9AFA080B180C280D380F3012A
:100BA000E00FF11FC601B5012081318142815381DF
:100BB0000E949F306DA77EA78FA798AB24962FAD7C
:100BC0002497E22FF0E0EE0FFF1FEE0FFF1F6E0ED7
:100BD0007F1ED3018D919D910D90BC91A02D8DAB69
:100BE0009EABAFABB8AF2DAD3EADE20FF31F608152
:100BF0007181828193812DA93EA94FA958AD0E9490
:100C00009E3069A77AA78BA79CA7D201C101B058D3
:100C10008DA39EA3AFA3B8A7A6019501505829A301
:100C20003AA34BA35CA34DAD5EADE40EF51ED70118
:100C30006D917D918D919C9129A93AA94BA95CA9AF
:100C40000E949E303B014C01EDADFEAD0E0F1F1F0B
:100C5000D8016D917D918D919C912DA53EA54FA5BB
:100C600058A90E949E305B016C016DA17EA18FA1ED
:100C700098A5A60195010E9458347B018C0169A1B9
:100C80007AA18BA19CA1A40193010E9458349B01DD
:100C9000AC01C801B7010E949E301B012C016DA15F
:100CA0007EA18FA198A5A40193010E9458347B01D5
:100CB0008C0169A17AA18BA19CA1A60195010E943A
:100CC00058349B01AC01C801B7010E949F309B01C1
:100CD000AC01C201B1010E9412315B016C01A89606
:100CE0008FADA897882399F0C601B50120E030E0C8
:100CF00040E050E00E9486338823ECF0C601B50145
:100D00002BED3FE049EC50E40E949E3012C0C6013A
:100D1000B50120E030E040E050E00E947831181644
:100D200054F0C601B5012BED3FE049EC50E40E94C0
:100D30009F305B016C01C601B501A7962CAD3DAD9E
:100D40004EAD5FADA7970E94583429A53AA54BA593
:100D50005CA50E9493337B018C0120E030E040E0F1
:100D600050E00E947831882309F4D5C1C801B70149
:100D700020912107309122074091230750912407A9
:100D80000E947F310E9455320E94EC3178A36F8F10
:100D90002996BFAD2997BB23A1F080E090E00E9487
:100DA00018329B01AC0128966CAD7DAD8EAD9FAD28
:100DB00028970E94583428966CAF7DAF8EAF9FAFB6
:100DC00028972F8D38A1B90180E090E00E94183259
:100DD0007B018C01C601B501A80197010E947F31FA
:100DE0006B8F7C8F8D8F9E8F69A57AA58BA59CA517
:100DF000A80197010E947F316F8B788F898F9A8F1E
:100E00006B8D7C8D8D8D9E8D20E030E040E05FEB22
:100E10000E9458342B8D3C8D4D8D5E8D0E94583430
:100E200020E030E040E85FE30E949F306B8B7C8BDA
:100E30008D8B9E8B24963FAD2497E32FF0E0EE0F31
:100E4000FF1FEE0FFF1FCE010196E80FF91F2DA91E
:100E50003EA94FA958AD208331834283538341E09B
:100E600050E05E874D8766242296BFAD2297AB2F58
:100E7000B0E0AA0FBB1FAA0FBB1FA80FB91F2B966C
:100E8000BFAFAEAF2B9723963FAD2397232F30E014
:100E9000220F331F220F331F280F391F2D963FAF0C
:100EA0002EAF2D972F96FFAFEEAF2F970EC1262DA9
:100EB000332727FD309580913F0790E028173907A9
:100EC0000CF046C06DA17EA18FA198A52B8D3C8D05
:100ED0004D8D5E8D0E9458347B018C0169A17AA1F1
:100EE0008BA19CA12B893C894D895E890E94583435
:100EF0009B01AC01C801B7010E949F307B018C01AE
:100F00006DA17EA18FA198A52B893C894D895E8911
:100F10000E9458345B016C0169A17AA18BA19CA14C
:100F20002B8D3C8D4D8D5E8D0E9458349B01AC0104
:100F3000C601B5010E949E306DA37EA38FA398A722
:100F40006394C701D80189A39AA3ABA3BCA361C0D2
:100F50004D855E85BA0180E090E00E9418322B8DAD
:100F60003C8D4D8D5E8D0E9458347B018C01C801F3
:100F70000E947C316F87788B898B9A8BB701C8016F
:100F80000E94DB343B014C01ABADBCADED90FD905C
:100F90000D911C9117FB109517F91095E9ADFAAD5D
:100FA0002080318042805380C801B7012F85388965
:100FB00049895A890E9458345B016C01C201B10110
:100FC000A40193010E9458349B01AC01C601B501F4
:100FD0000E949F306DA37EA38FA398A7C801B7017D
:100FE000A40193010E9458347B018C01C201B1011C
:100FF0002F85388949895A890E9458349B01AC0150
:10100000C801B7010E949E3069A37AA38BA39CA359
:10101000662469A97AA98BA99CA92DA13EA14FA1FB
:1010200058A50E949F302B96AEADBFAD2B976D9308
:101030007D938D939C9313976DA57EA58FA598A9FD
:1010400029A13AA14BA15CA10E949F302D96EEAD43
:10105000FFAD2D9760837183828393832F96AEAD0E
:10106000BFAD2F976D917D918D919C912F89388D7A
:10107000498D5A8D0E949F302F96EEADFFAD2F9770
:10108000608371838283938369817A818B819C8160
:101090002D813E814F815885E984FA840B851C851A
:1010A0002896ACACBDACCEACDFAC289729968FAC03
:1010B00029970E947A0480910506882361F52D8581
:1010C0003E852F5F3F4F3E872D874D855E858F8DF7
:1010D00098A14817590708F4EACEADADBEAD6D91A1
:1010E0007D918D919C91139714962D913D914D91E9
:1010F0005C9117971896ED90FD900D911C911B97A0
:101100002896ACACBDACCEACDFAC289729968FACA2
:1011100029970E947A04C25BDF4F0FB6F894DEBFB6
:101120000FBECDBFCF91DF911F910F91FF90EF9038
:10113000DF90CF90BF90AF909F908F907F906F90F7
:101140005F904F903F902F900895AF92BF92CF92B3
:10115000DF92EF92FF920F931F9359016A010E9451
:101160001A3220910A0730910B0740910C075091D9
:101170000D070E947F3160932106709322068093B1
:10118000230690932406C601B5010E941A322091CD
:101190000E0730910F0740911007509111070E94E0
:1011A0007F316093250670932606809327069093DF
:1011B0002806C801B7010E941A3220911207309107
:1011C000130740911407509115070E947F316093D7
:1011D000290670932A0680932B0690932C061F9164
:1011E0000F91FF90EF90DF90CF90BF90AF90089558
:1011F0002F923F924F925F926F927F928F929F9227
:10120000AF92BF92CF92DF92EF92FF920F931F9314
:10121000DF93CF93CDB7DEB7EF970FB6F894DEBF6D
:101220000FBECDBF4C0180910606863011F48CE0D4
:10123000C8C719828CE0FE013696DF01482F1D9247
:101240004A95E9F7FE017296DF011D928A95E9F74A
:1012500010921506222433241BAE1AAE12E0412E42
:10126000512C4C0E5D1EB3E0AB2EA2E0BA2E01E075
:10127000F1E06F2E712CA5C12E313105C9F12F314E
:101280003105D4F42431310584F421313105A4F53C
:101290002430310569F1253031051CF437FF2AC0AF
:1012A00025C02A30310511F523C02631310554F10E
:1012B0002C313105D9F41CC02C3531058CF42A357C
:1012C0003105E4F42C3331053CF426333105E4F4E4
:1012D0002533310559F40CC02035310539F40AC0E5
:1012E0002C35310529F02F35310554F010E00DC0B3
:1012F00011E00BC012E009C013E007C014E005C004
:1013000016E003C017E001C019E02531310509F4EA
:1013100094C026313105A4F52430310509F467C0A5
:1013200025303105A4F42130310509F465C022309F
:10133000310524F4232B09F45CC02EC12230310581
:1013400009F45DC02330310509F026C15BC02231AC
:10135000310509F461C0233131054CF42A303105DF
:1013600009F443C02131310509F016C14EC02331C3
:10137000310509F458C02431310509F00DC15AC0B6
:101380002035310509F490C021353105ACF4253301
:10139000310509F481C0263331054CF42C31310577
:1013A00009F44EC02E31310509F0F6C049C02C3386
:1013B00031050CF0F1C073C02C35310509F47EC045
:1013C0002D3531054CF42A35310509F471C02B3522
:1013D000310509F0E1C06FC02D35310509F488C031
:1013E0002E35310509F0D8C086C0B2E07FC0E1E0FB
:1013F0004EC010921606D2C000931606CFC0B0920F
:101400001606CCC0A0921606C9C010922E060093F4
:101410002F06B0923006C2C010922E06B0922F0650
:1014200000933006BBC000932E06B0922F06109298
:101430003006B4C000931806B1C010921806AEC0B2
:10144000C701B60120E030E040E251E40E94583488
:101450000E9432350E94E731F1E069317F0791F057
:1014600041E06A3174072CF46851714009F094C06E
:101470000BC081E06C32780749F06D52714009F081
:101480008BC007C0A4E02FC0B3E030C0E5E0EAAFF6
:1014900085C0F6E0FAAF82C041E04BAF7FC0822F3B
:1014A0008653809331067AC054E05093160676C076
:1014B0000093190673C01092190670C0C701B601D7
:1014C00020E030E040E251E40E9458340E9432357E
:1014D0000E94E73183E06839780739F06959734031
:1014E00009F05AC0A8E0AAAF59C0B7E0BAAF56C0D9
:1014F0000093170653C01092170650C026303105CE
:1015000034F42330310554F4772334F403C02E31FE
:10151000310511F010E003C015E001C018E02430DF
:10152000310569F12530310584F421303105B1F1FF
:10153000223031051CF4232BC9F02EC02230310596
:10154000C1F02330310541F517C028303105F1F0E5
:101550002930310524F425303105F1F414C0293047
:101560003105B9F02E313105B9F403C000931A06E4
:1015700015C0B0921A0612C000931B060FC0EFEF01
:10158000E0931B060BC010921B0608C000931C06BC
:1015900005C010921C0602C0A0921506112389F006
:1015A000930102C0220F331F1A95E2F7C90182216D
:1015B0009321892B21F0F5E0F093150602C0222A31
:1015C000332A9981F401E90FF11D10811123A9F04B
:1015D000812F81548A3110F082E00DC09F5F998382
:1015E000C401BE016F5F7F4FA2010E94C725892BF6
:1015F00009F000C681E080931506809115068823C6
:1016000009F0DFC5198277241CAE1DAE40E84EAF4D
:101610005FEB5FAF0F2EF0E0AF2EF0E0BF2EF0E0FB
:10162000CF2EF0E0DF2EF02DAEAABFAAC8AED9AE05
:101630004424E6E06E2E73E0572E0FC1EA80FB8053
:101640000C811D81C801B70120E030E040E050E08E
:101650000E947831181614F06092150680911706D2
:10166000882381F080911806882309F4F0C0C8010E
:10167000B70123E333E34BEC51E40E9458347B0180
:101680008C01E5C080911806882351F0C801B7018C
:1016900023E333E34BEC51E40E9458347B018C018B
:1016A000E0921D06F0921E0600931F06109320067E
:1016B000C8C02A813B814C815D81809118068823B6
:1016C00051F0CA01B90123E333E34BEC51E40E942A
:1016D00058349B01AC01E12FFF27E7FDF095E95459
:1016E000F040EE0FFF1FEE0FFF1F61E070E06C0F88
:1016F0007D1FE60FF71F218B328B438B548BA1C0CC
:101700006A817B818C819D810E9432350E94EC31FF
:10171000462E97C0AA80BB80CC80DD8092C08A8193
:101720009B81AC81BD818EAB9FABA8AFB9AF8091DF
:101730001806882309F485C06EA97FA988AD99ADE4
:1017400023E333E34BEC51E40E9458346EAB7FABA0
:1017500088AF99AF76C06A817B818C819D8120E0C2
:1017600030E040E050E00E94783188230CF069C0FE
:101770006092150666C0EA80FB800C811D81C8015D
:10178000B70120E030E040E050E00E94783188234B
:1017900014F460921506C801B7010E9432350E9408
:1017A000EC3160932D064DC02A813B814C815D81D7
:1017B00080911806882351F0CA01B90123E333E36D
:1017C0004BEC51E40E9458349B01AC012E833F83C3
:1017D0004887598791E0792A34C02A813B814C811E
:1017E0005D8180911806882351F0CA01B90123E375
:1017F00033E34BEC51E40E9458349B01AC012A873F
:101800003B874C875D87A2E07A2A1BC02A813B81F7
:101810004C815D8180911806882351F0CA01B9017D
:1018200023E333E34BEC51E40E9458349B01AC01B9
:101830002E873F87488B598BB4E07B2A02C0509299
:1018400015068CAD9DADAEADBFAD7C018D01D8014F
:10185000C701ECAE9DAFAEAFBFAF9981F401E90F08
:10186000F11D10811123B9F0812F81548A3110F0BC
:1018700082E00FC09F5F9983C401BE016F5F7F4FFD
:10188000AE014E5F5F4F0E94C725892B09F0C4C48B
:1018900081E08093150680911506882309F091C494
:1018A00080910606873041F080911B060E946D11E1
:1018B00080911C060E94901131FE13C08E01025EC1
:1018C0001F4F80913106B8010E94E21C882309F461
:1018D00077C4A2E3B6E0F8018CE001900D9281504C
:1018E000E1F7EAADE43009F463C1E53048F4E230F1
:1018F00051F1E33008F0B2C0E13009F0B1C10EC0DF
:10190000FAADF63009F454C1F63008F4A7C0F73048
:1019100009F459C1F83009F0A3C199C1C601B50154
:1019200020E030E040E050E00E94783188230CF461
:101930004CC180910606873009F492C1C601B501F9
:101940000E9426048DC142E0441619F054E1451668
:1019500049F4C601B5010E9432350E94E731673073
:10196000710520F083E08093150679C1772021F47A
:1019700082E0481609F429C1161617062CF44B010B
:1019800008948108910804C080913106882E99241A
:10199000582C8E01025E1F4F882DB8010E94E21C58
:1019A000882309F40DC431E2A32E36E0B32E26E0DD
:1019B000C22ED12CCC0EDD1E780100E010E0672C89
:1019C0007724C301002E02C0959587950A94E2F70B
:1019D00080FF20C094E1491699F4D5016D917D9165
:1019E0008D919C91F60120813181428153810E9429
:1019F0009E30D7016D937D938D939C9313970AC06E
:101A0000F60180819181A281B381F7018083918366
:101A1000A283B3830F5F1F4F44E050E0A40EB51EB6
:101A2000C40ED51EE40EF51E0330110551F68E01CD
:101A3000025E1F4F852DB8010E94D71C8091310690
:101A400090E08815990509F00AC1A2E3B6E0F80113
:101A50008CE001900D928150E1F701C1772009F4EB
:101A600078C08E010A5F1F4F91E2E92E96E0F92EB1
:101A7000CC24DD24A72CBB24C5010C2C02C09595D9
:101A800087950A94E2F780FF35C080911906882374
:101A9000F9F0D70151966D917D918D919C9154975C
:101AA0005D962D913D914D915C9190970E949F3054
:101AB0009B01AC01F80160817181828193810E9458
:101AC0009F30D8016D937D938D939C9313971CC089
:101AD000F8016081718182819381D7012D913D91BF
:101AE0004D915C910E949F30F801608371838283E5
:101AF00093830AC0F70180819181A281B381F801AB
:101B000080839183A283B3830894C11CD11C0C5F92
:101B10001F4F44E050E0E40EF51E53E0C516D1041B
:101B200009F0AACF6E817F81888599852A853B85BA
:101B30004C855D85EE84FF8408891989A0901C0777
:101B4000B0901D07C0901E07D0901F0788240E94E8
:101B50007A04BE01665D7F4F8AAD853011F487E05F
:101B600001C086E00E94E21C882309F429C36AA50B
:101B70007BA58CA59DA52EA53FA548A959A9EAA896
:101B8000FBA80CA91DA9A0901C07B0901D07C09030
:101B90001E07D0901F0788240E947A04A1E2B6E0B5
:101BA000FE01BA968CE001900D928150E1F757C08A
:101BB0009AAD963011F487E001C086E061E276E0EC
:101BC0000E94D71C4DC0772021F486E08093150633
:101BD00047C001E216E086E0C82ED12CCC0EDD1EF7
:101BE000EE24FF24A72CBB24C5010E2C02C0959522
:101BF00087950A94E2F780FF1CC0D8016D917D9112
:101C00008D919C91139751962D913D914D915C91A1
:101C100054970E949E30F601208131814281538188
:101C20000E949E30D8015D966D937D938D939C9319
:101C300090970894E11CF11C0C5F1F4FE4E0F0E06A
:101C4000CE0EDF1EF3E0EF16F10471F608C08CE053
:101C5000EEE3F6E0DF011D928A95E9F701C07724F3
:101C600022FC03C0772009F497C2809117068823CD
:101C700099F06CAD7DAD8EAD9FAD20E030E040E0E1
:101C800050E00E94783188233CF48091160684301D
:101C900019F086E080931506BBADBB2339F0809127
:101CA0001606823018F086E080931506809115069E
:101CB000882309F086C28E010A5F1F4FB1E2EB2E26
:101CC000B6E0FB2ECC24DD24A72CBB24C5010C2CB4
:101CD00002C0959587950A94E2F780FF39C0EBAD75
:101CE000EE2309F03FC0809119068823F9F0D7014F
:101CF00051966D917D918D919C9154975D962D910A
:101D00003D914D915C9190970E949F309B01AC0159
:101D1000F80160817181828193810E949F30D80196
:101D20006D937D938D939C9313971CC0F8016081F4
:101D3000718182819381D7012D913D914D915C916B
:101D40000E949F30F80160837183828393830AC06D
:101D5000F70180819181A281B381F8018083918311
:101D6000A283B3830894C11CD11C0C5F1F4F44E0B5
:101D700050E0E40EF51E53E0C516D10409F0A6CFDD
:101D800080911606843048F4823008F04CC08823D5
:101D900059F0813009F0F3C120C0843009F0EFC15F
:101DA000772009F4ECC18BC0772009F488C06E81DC
:101DB0007F81888599852A853B854C855D85EE8464
:101DC000FF8408891989A0901C07B0901D07C09056
:101DD0001E07D0901F07882423C0772009F46FC006
:101DE0006E817F81888599852A853B854C855D85B7
:101DF000EE84FF840889198980901706882061F491
:101E0000A0911D06ACAFB0911E06BDAFE0911F06BC
:101E1000EEAFF0912006FFAFACACBDACCEACDFAC0A
:101E20000E947A04ACC181E090E00090300602C0CC
:101E3000880F991F0A94E2F78095782209F43FC031
:101E40006EA97FA988AD99AD20E030E040E050E078
:101E50000E947831882309F043C0E0912E06F0E01B
:101E6000EE0FFF1FEE0FFF1F8E010F5F1F4FE00FE2
:101E7000F11FC188D288E388F488C701B60120E049
:101E800030E040E050E00E9478318823E1F4809116
:101E90002F0690E0880F991F880F991F080F191FB0
:101EA000D80151966D917D918D919C91549720E030
:101EB00030E040E050E00E947831882321F486E051
:101EC000809315065CC16EA97FA988AD99AD20E00D
:101ED00030E040E050E00E947831882309F4F8C0F7
:101EE000E0912E06F0E0EE0FFF1FEE0FFF1F8E01B8
:101EF0000F5F1F4FD801AE0FBF1FEF5DF94F159653
:101F00006D917D918D919C911897208131814281B5
:101F100053810E949E301B012C01E0912F06F0E0BE
:101F2000EE0FFF1FEE0FFF1F0E0F1F1FEF5DF94F8C
:101F3000D80115966D917D918D919C911897208176
:101F40003181428153810E949E303B014C018CE0E3
:101F5000FE017296DF011D928A95E9F76EA97FA9AD
:101F600088AD99AD20E030E040E850E40E9458345C
:101F70002EA93FA948AD59AD0E9458347B018C0170
:101F8000C201B101A20191010E9458349B01AC0130
:101F9000C801B7010E949E307B018C01C401B301CE
:101FA000A40193010E9458349B01AC01C801B70100
:101FB0000E949E307B018C0120E030E040E050E048
:101FC0000E947831882324F484E080931506F9C0B8
:101FD000C801B7010E94E5347B018C01C201B10147
:101FE000A40193010E9493339B01AC0117FB109550
:101FF00017F91095C801B7010E947F316B017C0170
:1020000080911606833021F4F7FAF094F7F8F094F3
:102010006EA97FA988AD99AD20E030E040E050E0A6
:102020000E94783188236CF4F7FAF094F7F8F09472
:102030004EA95FA968AD79AD70584EAB5FAB68AF84
:1020400079AF00912E06A02EBB24AA0CBB1CAA0CB3
:10205000BB1C8E010F5F1F4FA00EB11EC401B30148
:10206000A70196010E9458349B01AC01C201B10145
:102070000E949E3020E030E040E05FE30E94583450
:10208000D50151966D937D938D939C935497809138
:102090002F0690E0880F991F880F991F080F191FAE
:1020A000C201B101A70196010E9458349B01AC0105
:1020B000C401B3010E949F3020E030E040E05FE3C4
:1020C0000E945834F801618B728B838B948B15C0FE
:1020D000E0912F06F0E0EE0FFF1FEE0FFF1FEC0F59
:1020E000FD1F2289338944895589C701B6010E94A1
:1020F00093336EAB7FAB88AF99AF9091160620916A
:102100002E0600912F06E09030068090170688205A
:1021100061F4F0911D06FCAF40911E064DAF509149
:102120001F065EAF609120066FAF00D000D00F9207
:10213000EDB7FEB731964EA95FA968AD79ADADB7E1
:10214000BEB711964D935D936D937C93149780E089
:10215000923009F481E0848381E296E0BE016A5FF7
:102160007F4FAE014E5E5F4FACACBDACCEACDFACD2
:102170000E946C050F900F900F900F900F90809120
:1021800015068823F1F4A1E2B6E0FE0136968CE054
:1021900001900D928150E1F780911A06882369F031
:1021A0000E940F251092140680911A06823019F4AD
:1021B0000E940C0402C010921A068091150601C0FC
:1021C0008AE0EF960FB6F894DEBF0FBECDBFCF9179
:1021D000DF911F910F91FF90EF90DF90CF90BF9014
:1021E000AF909F908F907F906F905F904F903F90B7
:1021F0002F900895CA80DB80EC80FD80C701B60176
:102200000E9432350E94E7319B01173409F434C82B
:102210001D3409F0D6C972C91F3484F41D340CF082
:1022200010CB1C340CF06CCA19340CF042CA1634B2
:1022300009F404CA173409F002CB03CB143509F4AE
:102240009ACA153554F4123509F469CA13350CF0DD
:1022500082CA103509F0F3CA5DCA193509F4BDCA3E
:102260001A3509F4D3CA183509F0E9CA9DCAE5E15F
:10227000F6E085E3DF011D928A95E9F78091180762
:1022800090911907A0911A07B0911B0780931D0622
:1022900090931E06A0931F06B093200610922E0660
:1022A00091E090932F0682E0809330069093190678
:1022B00080913106BF01635E7F4F0E94E21C88233C
:1022C00019F48AE00E94DC2A089510920201249AEF
:1022D000259A2C9808952C9808951F93182F282F2D
:1022E000332727FD30958091020190E028173907A8
:1022F00071F00E940F25112339F0111614F42D9856
:1023000001C02D9A2C9A01C02C98109302011F91A4
:102310000895109203013B9A4398089543980895B5
:102320001F93182F80910301181749F00E940F2561
:10233000113011F4439A01C04398109303011F9187
:102340000895E0ECF0E080818D7F80831092C500DD
:1023500087E68093C400E1ECF0E0808180618083B7
:102360008081886080838081806880830895282FA1
:10237000E09106019E2F9F5F903431F490E004C0FD
:102380008091070684FD0FC0809107019817C1F363
:10239000F0E0E653F94F2083909306018091C1004D
:1023A00080628093C10008951F920F920FB60F9222
:1023B00011248F939F93EF93FF9380910701E82F50
:1023C000F0E0E653F94F90819093C600982F9F5FFD
:1023D000903409F490E090930701809106019817DA
:1023E00029F48091C1008F7D8093C100FF91EF910E
:1023F0009F918F910F900FBE0F901F901895809115
:1024000004018093050108951F920F920FB60F9259
:1024100011242F933F934F935F936F937F938F93E9
:102420009F93AF93BF93EF93FF932091C600213208
:10243000A1F0223218F42831B9F413C02F3319F067
:102440002E3791F404C080910706816003C080910B
:10245000070682608093070618C08091070688608F
:10246000F9CF0E940C0411C0E09104019E2F9F5FE0
:10247000903809F490E080910501981731F0F0E070
:10248000E65BF94F208390930401FF91EF91BF9198
:10249000AF919F918F917F916F915F914F913F91FC
:1024A0002F910F900FBE0F901F90189590910401DF
:1024B00080910501981711F4EFEF12C081EE90E0C2
:1024C0000E948D2A80910501E82FF0E0E65BF94F2C
:1024D000E0818F5F80930501803811F4109205012F
:1024E0008E2F08951F920F920FB60F9211242F93E3
:1024F0003F934F935F936F937F938F939F93AF938C
:10250000BF93EF93FF9386B190E08095909587708D
:102510009070892B91F0309903C00E940C040DC07B
:10252000319904C080910706886005C0329905C0C2
:1025300080910706826080930706FF91EF91BF911B
:10254000AF919F918F917F916F915F914F913F914B
:102550002F910F900FBE0F901F901895CF93DF9380
:1025600080910706882309F457C080910706C82F79
:10257000D0E0CE0180769070892BE9F086E08093E0
:102580000606C6FF10C08FEF0E943C2F81E00E941C
:10259000B22A809107068F7E8093070680910706F6
:1025A00084FFFCCF03C08EEF0E943C2F8091070672
:1025B0008F7980930706C4FF04C081E080930506ED
:1025C0002BC0C0FF07C00E94372B809107068E7F6B
:1025D00080930706C3FF07C00E94DB1580910706A2
:1025E000877F80930706C2FF07C00E94E515809190
:1025F00007068B7F80930706C1FF0EC00E94D1158E
:1026000080912D0781FF03C081E0809314068091A3
:1026100007068D7F80930706DF91CF91089580E0B4
:1026200068E071E00E944E1D882369F080910801E6
:10263000882361F088E091E00E949B2A88E091E085
:102640000E94F80801C08AE00E94DC2A81E068E06C
:1026500071E00E944E1D882321F48AE00E94DC2A4A
:10266000089580910801882351F088E091E00E944C
:102670009B2A88E091E00E94F8080E94DC2A0895D5
:10268000DF92EF92FF920F931F93DF93CF93CDB71B
:10269000DEB729970FB6F894DEBF0FBECDBF7C0121
:1026A000FC018081843209F009C181E08983818144
:1026B000873481F1883474F48432C1F0853234F483
:1026C000882389F0833209F097C01AC0833409F057
:1026D00093C02AC08E3409F469C08835F1F188347A
:1026E00009F08AC04CC00E94A82AF3C082E0898306
:1026F000F7018281882309F0E6C00E94DE2DE9C03F
:1027000082E08983F7018281882309F0DCC00E947E
:10271000202DDFC082E08983F7018281882309F0C0
:10272000D2C00E94342CD5C082E08983F701828117
:10273000882309F0C8C080910606873021F40E94E2
:102740000C0485E007C0882309F0BFC087E08093B0
:10275000060684E00E94B22ABCC082E08983F701A9
:102760008281882309F0AFC080910606863009F087
:10277000B0C083E00E94B22A10920606AAC08091DF
:102780002D0784FD02C017E0A5C0809106068823AE
:1027900019F0863009F099C00E94CA04809105069C
:1027A000882309F096C00E940F1393C082E08983AA
:1027B000F7018281882319F0DD24D3941EC080E0C4
:1027C000B7010E944E1D882329F080E0B7010E94C6
:1027D000FB2C03C08AE00E94DC2A81E0B7010E9442
:1027E0004E1D882321F48AE00E94DC2A72C081E019
:1027F000B7010E94FB2C6DC0DD24C7018E010F5F65
:102800001F4FB801AE014E5F5F4F0E94C725892B55
:1028100009F45DC09981F701E90FF11D80818D33C5
:1028200009F051C0892F8F5F8983DD2041F1482F46
:1028300050E02981822F90E0FC01E41BF50BEE0DA6
:10284000FF1DD701A80FB91F8C9180838C912F5F3A
:102850002983882371F7C7010E94F808182F88235D
:10286000C9F56A817B818C819D810E9432350E94ED
:10287000EC31DC01CB01B7010E94431D2BC0C70125
:10288000B801AE014A5F5F4F0E94C725892BF9F05E
:102890008981E80EF11CF70180818823A1F46A8107
:1028A0007B818C819D810E94E731DC01CB014E81CF
:1028B0005F81688579850E94DA1A03C0C7010E948A
:1028C000F808182F07C013E005C01BE003C011E093
:1028D00001C010E0812F29960FB6F894DEBF0FBE1D
:1028E000CDBFCF91DF911F910F91FF90EF90DF90BF
:1028F00008951F9311E046C02A3011F02D30B1F435
:102900000E94AE1280910506882309F090C0E091E4
:102910004E01EE2349F0F0E0E85FFE4F108288E0C0
:1029200091E00E94401317C080E015C080914F01D4
:10293000882319F0293231F512C0213218F12F32D3
:1029400009F1283219F410934F011CC090914E01E7
:10295000953440F08DE00E94DC2A10924E011092D6
:102960004F0110C0822F8156E92FF0E09F5F8A311E
:1029700020F4E85FFE4F205202C0E85FFE4F208344
:1029800090934E010E945612282F8F3F09F0B4CF2A
:1029900047C02A3011F02D30B1F40E94AE12809160
:1029A0000506882309F043C0E0914E01EE2349F06B
:1029B000F0E0E85FFE4F108288E091E00E94401353
:1029C00017C080E015C080914F01882319F029328B
:1029D00041F512C0213228F12F3219F1283219F4B1
:1029E00010934F011EC090914E01953440F08DE040
:1029F0000E94DC2A10924E0110924F0112C0822FC9
:102A00008156E92FF0E09F5F8A3120F4E85FFE4FA6
:102A1000205202C0E85FFE4F208390934E0101C018
:102A200011E00E94772F282F8F3F09F0B2CF1F911E
:102A3000089510924E0110924F010E94AD2A87B165
:102A4000887F87B988B1876088B9ECE6F0E080813B
:102A500087608083E8E6F0E080818260808308956B
:102A600080912D0782FF02C0289A01C0289880918A
:102A700006068330C1F4809120078093770180910E
:102A8000170790E0A0E0B0E00297A109B109880F14
:102A9000991FAA1FBB1F81958093760180916F00BB
:102AA000826080936F0008951F920F920FB60F926D
:102AB00011248F939F939BB1809120078C71937EFB
:102AC000892B8BB91092B1009F918F910F900FBEFF
:102AD0000F901F9018959B01AC01203283E03807BE
:102AE00080E0480780E0580720F420E233E040E02F
:102AF00050E060E070E788E399E30E947035C90117
:102B0000DA01803020E0920721E0A20720E0B2073E
:102B100030F4BC019C0140E050E091E02FC08030D7
:102B200020E0920728E0A20720E0B207A0F423E00B
:102B3000B695A795979587952A95D1F7BC019C01E5
:102B400040E050E0A3E0220F331F441F551FAA9519
:102B5000D1F792E013C0F6E0B695A79597958795C3
:102B6000FA95D1F7BC019C0140E050E0E6E0220F6D
:102B7000331F441F551FEA95D1F793E080918100E0
:102B8000887F982B909381007093890060938800D0
:102B9000209364013093650140936601509367016F
:102BA000089580910606823029F483E0809306061A
:102BB0000E943015089580910606833029F484E040
:102BC00080930606109214060895E0917401F09126
:102BD00075013097C1F1658576858785908920914B
:102BE0006001309161014091620150916301621B6B
:102BF000730B840B950B0E94D42010926C011092E1
:102C00006D0110926E0110926F0160E070E080E043
:102C100090E00E946B1580E091E7A2E0B0E0809325
:102C2000680190936901A0936A01B0936B011092BF
:102C3000600110926101109262011092630182E0C2
:102C400080930606089510920606089584E2E0E552
:102C5000F1E0DF011D928A95E9F760E273E080E020
:102C600090E00E946B151092750110927401109201
:102C70007801089580916F008D7F80936F0090910F
:102C80003D079F3F21F48091070685FF0BC0892FE8
:102C900090E00E94402580912D0782FF02C0289875
:102CA0000895289A08958AB18C6F8AB98BB1837080
:102CB00090912007892B8BB9209AE1E8F0E0808180
:102CC0008F7E8083808188608083E0E8F0E080816F
:102CD0008D7F808380818E7F808380818F738083CE
:102CE00080818F7C80831092B0001092B100E0E769
:102CF000F0E08081816080830E9430150E943A1646
:102D000008951F920F920FB60F921124EF92FF9227
:102D10000F931F932F933F934F935F936F937F93E3
:102D20008F939F93AF93BF93CF93DF93EF93FF93D3
:102D300080917801882309F06EC39BB120917701BF
:102D4000822F807E9F71892B8BB98BB1837E822BE2
:102D50008BB9809176018093B20082E08093B100BC
:102D600081E080937801789480917401909175014D
:102D7000892B09F07FC00E94801DEC0190937501A2
:102D800080937401009709F46EC080910606833029
:102D9000D1F46BA17CA18DA19EA160936C01709375
:102DA0006D0180936E0190936F010E946B1580E01E
:102DB00091E7A2E0B0E08093680190936901A0934D
:102DC0006A01B0936B012BA53CA54DA55EA5DA0168
:102DD000C901B595A79597958795820F931FA41F55
:102DE000B51F8093700190937101A0937201B0930D
:102DF00073012D853E854F855889DA01C901B59546
:102E0000A79597958795B095A095909581959F4F9B
:102E1000AF4FBF4F8093500190935101A093520147
:102E2000B09353018093540190935501A0935601A0
:102E3000B09357018093580190935901A0935A0180
:102E4000B0935B0120935C0130935D0140935E0180
:102E500050935F0110926001109261011092620123
:102E60001092630107C00E943A16809107068460A1
:102E700080930706E0917401F0917501309709F491
:102E8000C1C220812093770140915001509151019E
:102E9000609152017091530181819281A381B4812B
:102EA000480F591F6A1F7B1F4093500150935101D7
:102EB00060935201709353011416150616061706F7
:102EC000C4F524602093770180915C0190915D01AD
:102ED000A0915E01B0915F01481B590B6A0B7B0BFF
:102EE00040935001509351016093520170935301EC
:102EF00025FF0CC08091080690910906A0910A0652
:102F0000B0910B060197A109B1090BC08091080689
:102F100090910906A0910A06B0910B060196A11D99
:102F2000B11D8093080690930906A0930A06B093FA
:102F30000B064091540150915501609156017091DA
:102F4000570185819681A781B085480F591F6A1F57
:102F50007B1F409354015093550160935601709329
:102F600057011416150616061706D4F52091770199
:102F700028602093770180915C0190915D01A09180
:102F80005E01B0915F01481B590B6A0B7B0B4093AC
:102F9000540150935501609356017093570126FFD9
:102FA0000CC080910C0690910D06A0910E06B09178
:102FB0000F060197A109B1090BC080910C069091F1
:102FC0000D06A0910E06B0910F060196A11DB11D30
:102FD00080930C0690930D06A0930E06B0930F06F7
:102FE000409158015091590160915A0170915B01D3
:102FF00081859285A385B485480F591F6A1F7B1F61
:10300000409358015093590160935A0170935B01AA
:103010001416150616061706D4F5209177012061BF
:103020002093770180915C0190915D01A0915E01F8
:10303000B0915F01481B590B6A0B7B0B4093580101
:103040005093590160935A0170935B0127FF0CC0A4
:103050008091100690911106A0911206B09113066E
:103060000197A109B1090BC080911006909111063A
:10307000A0911206B09113060196A11DB11D809377
:10308000100690931106A0931206B0931306209198
:1030900060013091610140916201509163012F5FA5
:1030A0003F4F4F4F5F4F209360013093610140933A
:1030B00062015093630185859685A785B08928179D
:1030C00039074A075B0708F097C1809106068430EC
:1030D00009F05BC020916401309165014091660167
:1030E000509167018091680190916901A0916A01F6
:1030F000B0916B01280F391F4A1F5B1F2093680195
:103100003093690140936A0150936B01213002EEC4
:10311000300704E0400700E0500708F473C1205076
:10312000324E4440504020936801309369014093EF
:103130006A0150936B0120916C0130916D014091B7
:103140006E0150916F0163A574A585A596A56217C0
:1031500073078407950740F00E943A16809107068E
:103160008460809307064EC179018A01E61AF70A46
:10317000080B190BC801B701E0926C01F0926D01C8
:1031800000936E0110936F016CC087A590A9A1A94F
:10319000B2A9281739074A075B0708F065C02091D4
:1031A0006401309165014091660150916701809101
:1031B000680190916901A0916A01B0916B01280F9B
:1031C000391F4A1F5B1F20936801309369014093A8
:1031D0006A0150936B01213002EE300704E0400792
:1031E00000E0500708F40EC12050324E44405040D9
:1031F000209368013093690140936A0150936B01F9
:1032000083A594A5A5A5B6A520916C0130916D016B
:1032100040916E0150916F01820F931FA41FB51F43
:1032200080936C0190936D01A0936E01B0936F0138
:1032300027A930AD41AD52AD82179307A407B5075A
:1032400040F020936C0130936D0140936E015093D8
:103250006F0160916C0170916D0180916E01909190
:103260006F010E946B15CEC083A994A9A5A9B6A928
:10327000281739074A075B0708F4A2C0281739073F
:103280004A075B0779F520916C0130916D014091FF
:103290006E0150916F0187A990ADA1ADB2AD281715
:1032A00039074A075B0729F480E091E7A2E0B0E024
:1032B00010C080E092EEA4E0B0E02091680130916F
:1032C000690140916A0150916B01821B930BA40B21
:1032D000B50B8093680190936901A0936A01B09344
:1032E0006B0190C0209164013091650140916601AD
:1032F000509167018091680190916901A0916A01E4
:10330000B0916B01280F391F4A1F5B1F2093680182
:103310003093690140936A0150936B01213012EEA2
:10332000310714E0410710E0510708F46BC020504A
:10333000324E4440504020936801309369014093DD
:103340006A0150936B0120916C0130916D014091A5
:103350006E0150916F018091700190917101A09167
:103360007201B091730182179307A407B50748F45F
:1033700083A594A5A5A5B6A5281B390B4A0B5B0B05
:1033800004C0569547953795279520936C01309347
:103390006D0140936E0150936F0127A130A541A5A7
:1033A00052A580916C0190916D01A0916E01B09138
:1033B0006F0182179307A407B50708F04ACF41CFE2
:1033C00027A930AD41AD52AD80916C0190916D0156
:1033D000A0916E01B0916F0182179307A407B50702
:1033E00089F020936C0130936D0140936E015093EE
:1033F0006F01CA01B90135CF1092750110927401A5
:103400000E94711D809177019091200789278093F8
:10341000770110927801FF91EF91DF91CF91BF91E9
:10342000AF919F918F917F916F915F914F913F915C
:103430002F911F910F91FF90EF900F900FBE0F9063
:103440001F901895F999FECF92BD81BD81E08FBB89
:1034500080B50895F894F999FECF92BD81BD81E0C1
:103460008FBB40B54627842F992787FD9095262F3F
:1034700030E082239323892B39F06F3F19F060BD30
:1034800084E006C084E104C0442321F060BD84E2EE
:103490008FBBF99A789408958F929F92AF92BF92C2
:1034A000CF92DF92EF92FF920F93DF93CF9300D0F2
:1034B000CDB7DEB75C016B017A014A0100E01EC0A6
:1034C000002319F021E030E008C0202F332727FD2A
:1034D00030952227330F221F3327F60161916F01A8
:1034E000062F020F9C012F5F3F4F3A8329830E94D2
:1034F0002A1A08948108910889819A81811491047B
:10350000F9F6C7018A0D9B1D602F0E942A1A0F90A1
:103510000F90CF91DF910F91FF90EF90DF90CF90C0
:10352000BF90AF909F908F900895CF93DF93EC0161
:10353000FB019A0190E0B1E019C0F999FECFF2BD0C
:10354000E1BDBFBBA0B5992319F081E090E008C0B0
:10355000892F992787FD90958827990F881F99278C
:1035600031969A2F980FA99321503040211531059B
:1035700021F7460F571FF999FECF52BD41BD81E09B
:103580008FBB80B520E030E0981711F421E030E0E7
:10359000C901DF91CF91089580E090E065E00E943D
:1035A0002A1A81E090E06AE077E046E350E00E946A
:1035B0004C1A0895EF92FF920F931F93CF93DF93CE
:1035C000EC017A018B01FC018731910540F4EC5C40
:1035D000FF4FEE0FFF1F0590F491E02D099486E058
:1035E0001FC1CB01BA0120E030E040E050E00E9472
:1035F0007831181614F088E013C1CC0FDD1FCC0F02
:10360000DD1FC65FD84FE882F9820A831B8305C19C
:10361000CB01BA0120E030E040E450E40E94783170
:10362000882314F489E0FCC0C801B7010E94BB34B0
:103630000E94EC3160931707F0C040931807509335
:10364000190760931A0770931B07E7C040931C0784
:1036500050931D0760931E0770931F07DEC0CB01B8
:10366000BA010E9432350E94EC3160932007D5C028
:10367000CB01BA010E94BB340E94EC3160933D073C
:10368000CCC0CB01BA0120E030E040E752E40E9418
:10369000583420E030E040E752E40E945834609310
:1036A0002507709326078093270790932807B5C0B6
:1036B000DB01CA01BF778093290790932A07A09363
:1036C0002B07B0932C07A9C04093210750932207E2
:1036D0006093230770932407A0C0CB01BA010E9416
:1036E000BB340E94EC3160933F0797C0CB01BA0115
:1036F0000E94BB340E94EC3160933E078EC0CB0128
:10370000BA0120E030E040E050E00E9478318823A8
:1037100021F080912D07816011C080912D078E7F4F
:103720000DC0CB01BA0120E030E040E050E00E9443
:103730007831882331F080912D07826080932D07A6
:103740006CC080912D078D7FF9CFCB01BA0120E0AD
:1037500030E040E050E00E947831882321F08091F1
:103760002D078460EBCF80912D078B7FE7CFCB01B6
:10377000BA0120E030E040E050E00E947831882338
:1037800021F080912D07886003C080912D07877FED
:1037900080932D070E94822640C0CB01BA0120E011
:1037A00030E040E050E00E947831882321F08091A1
:1037B0002D078061C3CF80912D078F7EBFCFCB01B6
:1037C000BA010E9432350E94EC3160932E0725C069
:1037D00040932F075093300760933107709332075F
:1037E0001CC04093330750933407609335077093A0
:1037F000360713C0CB01BA010E94BB340E94EC31E2
:10380000709338076093370708C040933907509387
:103810003A0760933B0770933C070E94CC1A80E004
:10382000DF91CF911F910F91FF90EF900895882322
:1038300009F45AC080E090E0AAE7B3E480930A0755
:1038400090930B07A0930C07B0930D0780930E077E
:1038500090930F07A0931007B0931107809312075E
:1038600090931307A0931407B09315072AE02093B1
:1038700017078093180790931907A0931A07B0931E
:103880001B0780E090E0AAEFB3E480931C079093BD
:103890001D07A0931E07B0931F0780E090EAACE0DD
:1038A000B7E48093250790932607A0932707B0934A
:1038B00028078DEC9CECACECBDE380932107909342
:1038C0002207A0932307B093240780EC809320075E
:1038D0008DEC9CECACE4BDE38093290790932A0720
:1038E000A0932B07B0932C0782E080932D071092B2
:1038F0002E0780E090E0A8ECB1E480932F0790932E
:103900003007A0933107B093320780E090E0AAE738
:10391000B3E48093330790933407A0933507B093B3
:10392000360784E690E0909338078093370780E06D
:1039300090E0A0E8BFE38093390790933A07A09303
:103940003B07B0933C0799E190933D0783E0809358
:103950003E0790933F070E94CC1A089580E090E0C4
:103960000E94221A853079F48AE097E061E070E0E5
:1039700046E350E00E94951A20E0892B09F421E0EB
:1039800081E0282712C0853078F48AE097E061E072
:1039900070E043E250E00E94951A892B29F080E004
:1039A0000E94171C21E001C020E0822F08959DE0B5
:1039B000899FC001112480509E4F4CE050E00E942E
:1039C0004C1A08950F931F93CF93DF93162F072F51
:1039D0009DE0899FE0011124C050DE4F862F972F74
:1039E000BE014CE050E00E94951A892B11F081E055
:1039F0000FC0E12FF02F8CE0DF011D928A95E9F7CF
:103A0000CE01612F702F4CE050E00E944C1A80E0F4
:103A1000DF91CF911F910F910895EF92FF921F9325
:103A2000DF93CF93CDB7DEB72C970FB6F894DEBFF8
:103A30000FBECDBF0E94AE1C882341F48AE00E94D5
:103A4000DC2A81E00E94171C0E94DE2D10E07E011E
:103A50000894E11CF11C812FB7010E94E21C88230D
:103A600019F48AE00E94DC2A1F5F1830A1F72C9617
:103A70000FB6F894DEBF0FBECDBFCF91DF911F917F
:103A8000FF90EF90089597E4899FC0011124805022
:103A90009D4F46E450E00E944C1A08950F931F93E7
:103AA000CF93DF938B0197E4899FE0011124C050ED
:103AB000DD4FCB01BE0146E450E00E94951A892BF0
:103AC00011F081E009C0F8011082CE01B80146E48E
:103AD00050E00E944C1A80E0DF91CF911F910F912E
:103AE000089590919F058091A005981741F08091CD
:103AF000A0058F5F823109F480E08093A0050895CE
:103B000090919F058091A005981719F420E030E06E
:103B100008C09091A0058BE3989F9001112427582D
:103B20003E4FC90108959091A00520E08091A10524
:103B3000981709F421E0822F0895EF92FF920F93D6
:103B40001F936093A2057093A3058093A40590939F
:103B5000A5052093A6053093A7054093A80550938B
:103B6000A905E092AA05F092AB050093AC0510936D
:103B7000AD051F910F91FF90EF9008958F929F9246
:103B8000AF92BF92CF92DF92EF92FF920F931F936B
:103B9000CF93DF93EC016B01009709F460C08AA119
:103BA000882309F05CC0ED88FE880F89188DFB0121
:103BB000B588A6889788808CC801B7012B2D3A2D2F
:103BC000492D582D0E94783188230CF048C0C80137
:103BD000B701A80197010E9458347B018C016091C4
:103BE0002507709126078091270790912807905804
:103BF00020E030E040E050EC0E9458342D8D3E8DA6
:103C00004F8D58A10E9458349B01AC01C801B701E7
:103C10000E949F300E94E5347B018C016B2D7A2D30
:103C2000892D982D9701A8010E947831882324F4CA
:103C3000EB2CFA2C092D182D6B2D7A2D892D982D12
:103C40009701A8010E947831882349F0C701D80163
:103C5000F601858B968BA78BB08F81E081A3DF91D6
:103C6000CF911F910F91FF90EF90DF90CF90BF9079
:103C7000AF909F908F9008952F923F924F925F92B6
:103C80006F927F928F929F92AF92BF92CF92DF926C
:103C9000EF92FF920F931F93DF93CF93CDB7DEB7D1
:103CA00068970FB6F894DEBF0FBECDBF1C016A0146
:103CB0007B0128013901DC01D7966D917D918D91B1
:103CC0009C91DA970E9418324B015C01A701960182
:103CD0000E9458340E9465310E94EC317B018C01B6
:103CE000F10163A374A385A396A3C501B401A30145
:103CF00092010E9458340E9465310E94EC3169871C
:103D00007A878B879C87D10197966D937D938D934E
:103D10009C939A979B966D917D918D919C919E9786
:103D200022E330E040E050E00E9451350E941A3218
:103D300020E030E040E752E40E9458340E94E7312E
:103D40002B013C01C801B7010E9418327B018C0194
:103D5000C301B2010E941A326D837E838F839887DC
:103D6000C501B401A50194010E9458345B016C01A6
:103D7000C801B701A80197010E9458346D877E875A
:103D80008F87988B6D817E818F8198859B01AC0197
:103D90000E949F30698B7A8B8B8B9C8BC601B501FF
:103DA0002D853E854F8558890E949E3029893A8904
:103DB0004B895C890E947F310E9465310E94E73106
:103DC00069837A838B839C8369857A858B859C85BF
:103DD0000E9418329B01AC010E9458346D8B7E8B7F
:103DE0008F8B988FA60195010E949E307B018C01DC
:103DF0007094609450944094411C511C611C711C3F
:103E0000C301B2010E941A329B01AC010E949F3093
:103E10009B01AC01C801B7010E947F310E9455325D
:103E2000F101A584B684C784D088860175012981F3
:103E30003A814B815C81E21AF30A040B150B0E9454
:103E4000E731A8019701261B370B480B590BDA0104
:103E5000C90157FF4AC0C601B5010E941A329B0131
:103E6000AC0169897A898B899C890E9458342D8597
:103E70003E854F8558890E949E302D893E894F8905
:103E8000588D0E949F307B018C016D817E818F81D6
:103E9000988520E030E040E850E40E9458349B01CF
:103EA000AC01C801B7010E947F310E9465310E94B8
:103EB000E731AC01CB01DA01BC01CD0197FF04C0B1
:103EC00060E070E080E090E069837A838B839C837C
:103ED000A616B706C806D90624F4A982BA82CB82F0
:103EE000DC8280E090E0A0E0B0E029813A814B8163
:103EF0005C81F10127A730AB41AB52AB820F931F1E
:103F0000A41FB51F83AB94ABA5ABB6AB68960FB639
:103F1000F894DEBF0FBECDBFCF91DF911F910F91FF
:103F2000FF90EF90DF90CF90BF90AF909F908F90D9
:103F30007F906F905F904F903F902F9008952F92B9
:103F40003F924F925F927F928F929F92AF92BF92D9
:103F5000CF92DF92EF92FF920F931F93CF93DF9355
:103F6000D0909F058091250790912607A091270763
:103F7000B09128071C012D0157FA509457F850941E
:103F800000E010E0C0E0D0E0BB24B3943BE3C32EDC
:103F900072C0DD2011F422E1D22EDA94209709F4C8
:103FA00063C00115110509F45FC0A98C9A8C8B8C34
:103FB0007C8C6D897E898F89988D2A2D392D482D8D
:103FC000572D0E947831882309F44EC08AA1882396
:103FD00009F041C0F801E588F6880789108D6A2D3F
:103FE000792D882D972DA80197010E9486331816E8
:103FF00094F5C801B701A80197010E9458347B01CC
:104000008C01C201B10120E030E040E050EC0E94A0
:1040100058342D8D3E8D4F8D58A10E9458349B01F0
:10402000AC01C801B7010E949F300E94E534162FF1
:10403000072FF82EE92E6A2D792D882D972D212F07
:10404000302F4F2D5E2D0E94783187FD04C0A12EA8
:10405000902E8F2C7E2C8A2D992DA82DB72D8D8BEF
:104060009E8BAF8BB88FB9A2DC9CC00111248E014E
:10407000EC01C758DE4F8091A005D81609F089CF12
:10408000F090A00520E030E000E010E09BE3E92E96
:1040900011C0FE9CE0011124C758DE4FC901B801D0
:1040A000AE010E94BE1DF394F2E1FF1609F4FF2455
:1040B00098018E0180919F05F81659F7C901B80142
:1040C00040E050E00E94BE1D7090A005C0E0D0E02E
:1040D0008BE3582E35C0759C4001112489E791E08F
:1040E000880E991E209731F189A1882321F4F401CB
:1040F00081A18823F9F0E988FA880B891C896D89E8
:104100007E898F89988DA80197010E947F315B017C
:104110006C01F401658976898789908DA8019701E2
:104120000E947F318B019C01CE01B601A5010E9446
:104130003C1E19A27394F2E17F1609F47724E4017E
:1041400080919F05781639F6E988FA880B891C89D1
:104150006D897E898F89988DA80197010E947F3192
:104160005B016C0160E070E080E090E0A8019701E5
:104170000E947F318B019C01CE01B601A5010E94F6
:104180003C1E19A2DF91CF911F910F91FF90EF90EC
:10419000DF90CF90BF90AF909F908F907F905F9077
:1041A0004F903F902F900895AF92BF92CF92DF92A1
:1041B000EF92FF920F931F93CF93DF935B016C01FC
:1041C0009091A0058BE3989FE0011124C758DE4F22
:1041D000C601B5010E941A322D8D3E8D4F8D58A11A
:1041E0000E9458347B018C016D857E858F8598896E
:1041F0000E941A329B01AC01C801B7010E947F31B5
:104200006D8F7E8F8F8F98A3AD86BE86CF86D88A1E
:1042100080E090E0A0E0B0E08D8B9E8BAF8BB88FFC
:10422000898F9A8FAB8FBC8F1AA281E089A30E94DD
:104230009F1FDF91CF911F910F91FF90EF90DF9023
:10424000CF90BF90AF9008952F923F924F925F9280
:104250006F927F928F929F92AF92BF92CF92DF9296
:10426000EF92FF920F931F93DF93CF93CDB7DEB7FB
:10427000C355D0400FB6F894DEBF0FBECDBF2901A5
:104280003A012396ACAEBDAECEAEDFAE23972496F8
:104290008FAE249730919F052BE3329FA00111240C
:1042A00047585E4F5A8F498F20910A0730910B076C
:1042B00040910C0750910D072BAF3CAF4DAF5EAF57
:1042C0000E9458340E94283429966FAF29972A9665
:1042D0007FAF2A972B968FAF2B972C969FAF2C975B
:1042E00080910E0790910F07A0911007B0911107D0
:1042F0008FAB98AFA9AFBAAFC301B2012FA938AD48
:1043000049AD5AAD0E9458340E9428342D966FAFA3
:104310002D972E967FAF2E972F968FAF2F97609663
:104320009FAF6097209112073091130740911407B7
:10433000509115072BAB3CAB4DAB5EABC801B70141
:104340000E9458340E94283461966FAF619762963C
:104350007FAF629763968FAF639764969FAF6497C2
:10436000A98DBA8D1C922091A2053091A305409190
:10437000A4055091A5052C968CAD9DADAEADBFADFD
:104380002C9782179307A407B50724F480E2A98D20
:10439000BA8D8C934090A6055090A7056090A80513
:1043A0007090A90560968CAD9DADAEADBFAD609728
:1043B00084159505A605B7052CF4A98DBA8D8C91A9
:1043C00080648C93E090AA05F090AB050091AC0559
:1043D0001091AD0564968CAD9DADAEADBFAD64974B
:1043E0008E159F05A007B1072CF4A98DBA8D8C916D
:1043F00080688C932C96ACACBDACCEACDFAC2C976B
:10440000A21AB30AC40AD50AE98DFA8DA182B28232
:10441000C382D482D7FE0BC088279927DC018A1972
:104420009B09AC09BD0981839283A383B483609601
:104430002CAD3DAD4EAD5FAD6097241935094609F1
:10444000570939014A01A98DBA8D15962D933D93CF
:104450004D935C93189757FF0DC088279927DC016F
:10446000821B930BA40BB50BE98DFA8D8583968384
:10447000A783B08764962CAC3DAC4EAC5FAC649720
:104480002E183F08400A510AA201910157FE07C0A9
:1044900022273327A9012219330944095509A98D77
:1044A000BA8D19962D933D934D935C931C97159659
:1044B000ED90FD900D911C911897FD0181819281E5
:1044C000A381B4818E159F05A007B10710F4D80110
:1044D000C70182179307A407B50710F4DA01C901D1
:1044E000E98DFA8D85879687A787B08B0097A10500
:1044F000B10509F47AC2C601B5010E941A322BAD8A
:104500003CAD4DAD5EAD0E947F316FA778AB89ABFE
:104510009AABC401B3010E941A322FA938AD49AD3C
:104520005AAD0E947F316BA77CA78DA79EA7C201C1
:10453000B1010E941A322BA93CA94DA95EA90E9483
:104540007F316FA378A789A79AA76FA578A989A9B2
:104550009AA99B01AC010E9458347B018C016BA588
:104560007CA58DA59EA59B01AC010E9458349B01A2
:10457000AC01C801B7010E949F307B018C016FA183
:1045800078A589A59AA59B01AC010E9458349B018E
:10459000AC01C801B7010E949F300E94E5347B0145
:1045A0008C01A98DBA8D5D966D937D938D939C93AF
:1045B000909760E070E080E89FE3A80197010E9477
:1045C0007F312B013C012496BFAD2497BB2359F4C6
:1045D00023966CAD7DAD8EAD9FAD2397A301920167
:1045E0000E9458340CC060E070E080E89FE323969E
:1045F0002CAD3DAD4EAD5FAD23970E947F315B0189
:104600006C01C801B701A60195010E945834289693
:104610006CAF7DAF8EAF9FAF2897E98DFA8D618B20
:10462000728B838B948B65857685878590890E94B4
:104630001A327B018C01A60195010E9458340E9418
:1046400065310E94EC31A98DBA8DD7966D937D931B
:104650008D939C93DA9720912507309126074091FE
:104660002707509128072BA33CA34DA35EA3C801A5
:10467000B701A30192010E9458342BA13CA14DA186
:104680005EA10E94583420E030E84BE355E40E94DC
:104690007F310E9465310E94E731A98DBA8D9B96CA
:1046A0006D937D938D939C939E976FA578A989A90F
:1046B0009AA9A30192010E9458346F8F78A389A30D
:1046C0009AA36BA57CA58DA59EA5A30192010E942E
:1046D00058346B8F7C8F8D8F9E8F6FA178A589A5A5
:1046E0009AA5A30192010E9458341B012C019091BC
:1046F0009F058091A005981709F4B7C06090BA058E
:104700007090BB058090BC059090BD05B301C401BD
:1047100020E030E040E050E00E94863318160CF0B4
:10472000A4C06091AE057091AF058091B0059091E5
:10473000B10590582F8D38A149A15AA10E94583433
:104740007B018C016B8D7C8D8D8D9E8D2091B205B2
:104750003091B3054091B4055091B5050E9458348D
:104760009B01AC01C801B7010E949E307B018C0106
:10477000C201B1012091B6053091B7054091B8054D
:104780005091B9050E9458349B01AC01C801B70192
:104790000E949E307B018C0123E333E343E75FE318
:1047A0000E94783188230CF060C0B301C4012896C0
:1047B0002CAD3DAD4EAD5FAD28970E94783187FDA1
:1047C00008C028968CAD9DADAEADBFAD28973C011D
:1047D0004D01C801B70123E333E343E75FEB0E94D8
:1047E000863318160CF046C060E070E080E89FE366
:1047F000A80197010E949E3020E030E040E05FE396
:104800000E9458340E94E5345B016C016BA17CA1CD
:104810008DA19EA12091290730912A0740912B0755
:1048200050912C070E945834A60195010E945834DB
:104830007B018C0160E070E080E89FE3A6019501B8
:104840000E949E309B01AC01C801B7010E947F31DC
:104850000E94E5347B018C01B301C4019701A801DA
:104860000E94783187FD06C007C0EE24FF2400E0D7
:1048700010E002C073018401C701D801E98DFA8DEF
:10488000818F928FA38FB48F6BA17CA18DA19EA1EC
:10489000905820E030E040E050EC0E945834A98D60
:1048A000BA8D5D962D913D914D915C9190970E94AE
:1048B000583420E030E040E050E00E949F300E94F9
:1048C000E534D62EC72EB82EA92EB701C8012D2D3E
:1048D0003C2D4B2D5A2D0E94783187FD04C0ED2CC4
:1048E000FC2C0B2D1A2DC701D801E98DFA8D858B73
:1048F000968BA78BB08F61897289838994892D2DBE
:104900003C2D4B2D5A2D0E947831181634F081E041
:10491000A98DBA8D92968C9303C0E98DFA8D12A25F
:1049200081E0A98DBA8D91968C932D8A3E8A4F8A0B
:10493000588E2B8D3C8D4D8D5E8D298B3A8B4B8BFC
:104940005C8B8F8D98A1A9A1BAA18D879E87AF8717
:10495000B88B64962CAD3DAD4EAD5FAD64972987A5
:104960003A874B875C8760968CAD9DADAEADBFAD91
:1049700060978D839E83AF83B8872C962CAD3DAD19
:104980004EAD5FAD2C9729833A834B835C83AEEAAF
:10499000B5E0FE013D968CE001900D928150E1F76B
:1049A000E98DFA8D81899289A389B4898093BA05AA
:1049B0009093BB05A093BC05B093BD058091A10564
:1049C00080939F0580919F058F5F823109F480E07D
:1049D0008093A105A2EAB5E0FE0131968CE001903A
:1049E0000D928150E1F70E949F1FCD5ADF4F0FB605
:1049F000F894DEBF0FBECDBFCF91DF911F910F9115
:104A0000FF90EF90DF90CF90BF90AF909F908F90EE
:104A10007F906F905F904F903F902F9008951F93DD
:104A20001BE306C00E94AE1280910506882391F414
:104A300090919F058091A005981741F08091A00565
:104A4000819FC001112487589E4F61F7809106060F
:104A5000833041F31F91089580919F058093A005B5
:104A600080919F058F5F823109F480E08093A105DA
:104A70008CE1E2EAF5E0DF011D928A95E9F70895FD
:104A800020EA3FE004C0F9013197F1F70197009760
:104A9000D1F708951F93A0EABFE040E951E015E384
:104AA00035E031C06A3071058105910540F4232F4E
:104AB0002A95F1F7615070408040904024C06436E0
:104AC00071058105910540F4212F2A95F1F76A506F
:104AD00070408040904017C0683E23E0720720E09D
:104AE000820720E0920740F4FA013197F1F764560B
:104AF00070408040904007C0FD013197F1F7685E3B
:104B0000734080409040611571058105910551F613
:104B10001F910895EF92FF920F931F9360910806E3
:104B20007091090680910A0690910B0620910C065F
:104B300030910D0640910E0650910F06E090100640
:104B4000F090110600911206109113060E949D1D0F
:104B5000609108067091090680910A0690910B06F3
:104B600020910C0630910D0640910E0650910F06D3
:104B7000E0901006F09011060091120610911306B5
:104B80000E94A5081F910F91FF90EF9008956F92DA
:104B90007F928F929F92AF92BF92CF92DF92EF92CD
:104BA000FF920F931F93CF93DF934C013B015A0168
:104BB000FB018081F401E80FF11DEF0189918D3235
:104BC00029F481812196CC24C39405C08B3211F441
:104BD00081812196CC2420E030E040E050E0DD24CB
:104BE000E0E070E0682F60536A30F8F4EF5FE9307E
:104BF000C0F47111DA94DA01C901F2E0880F991F4B
:104C0000AA1FBB1FFA95D1F7280F391F4A1F5B1F38
:104C1000220F331F441F551F260F311D411D511DEB
:104C200009C0772339F4D39405C06E3F29F4772364
:104C300019F471E08991D6CFEE2319F420E030E029
:104C400051C0CA01B9010E9418327B018C0120E0D9
:104C500030E040E050E00E947831882369F42BC0B6
:104C6000C801B7012AE037ED43E25CE30E94583403
:104C70007B018C01F2E0DF0E8FEFD8168CF3D81693
:104C800059F4C801B7012DEC3CEC4CEC5DE30E94FB
:104C900058347B018C010FC0DD2069F0C801B701D9
:104CA00020E030E040E251E40E9458347B018C0166
:104CB000DA941D149CF3CC2049F0D801C701B058F8
:104CC000F50180839183A283B38305C0F501E0825F
:104CD000F18202831383882D80958C0FF3018083EA
:104CE00021E030E0C901DF91CF911F910F91FF903A
:104CF000EF90DF90CF90BF90AF909F908F907F907C
:104D00006F90089584B1817F84B985B18E6085B933
:104D100080912D0783FF09C080916B008E60809386
:104D20006B0080916800816008C080916B00817F7A
:104D300080936B00809168008E7F80936800089557
:104D40002F923F924F925F926F927F928F929F929B
:104D5000AF92BF92CF92DF92EF92FF920F931F9389
:104D6000DF93CF93CDB7DEB7A9970FB6F894DEBF28
:104D70000FBECDBF8EA36FA348A738014901FE0126
:104D800031968CE0DF011D928A95E9F70EA100FDB6
:104D900002C010E00FC060910A0770910B0780916C
:104DA0000C0790910D070E94283469837A838B83C6
:104DB0009C8311E001FF0FC01F5F60910E0770918F
:104DC0000F0780911007909111070E9428346D837E
:104DD0007E838F83988702FF0FC01F5F6091120749
:104DE0007091130780911407909115070E94283441
:104DF00069877A878B879C8789859A85AB85BC85EF
:104E00002D803E804F805884281639064A065B065E
:104E100010F41C012D0189819A81AB81BC81281677
:104E200039064A065B0610F41C012D01612F70E063
:104E300080E090E00E9418320E94E5345B016C0132
:104E4000C201B1010E941832A60195010E947F3172
:104E50007B018C012091250730912607409127077F
:104E6000509128070E94583420E030E84BE355E485
:104E70000E947F310E9465310E94EC316AA37BA3BE
:104E80008CA39DA3C401B301A60195010E945834CF
:104E90009B01AC01C801B7010E9458349B01AC01D1
:104EA00060EC71EE84E69CE40E947F310E9428341D
:104EB0007B018C01B8EFEB16B4E2FB06B1E00B0707
:104EC000B0E01B0718F45701680107C038EFA32EA4
:104ED00034E2B32E31E0C32ED12C20912E07207E58
:104EE00080912007282729A33FA1332319F480EEBE
:104EF000282729A3D201C101B695A7959795879533
:104F0000662477244301681A790A8A0A9B0A8091E9
:104F10001707B601A501481B5109610971094D8B9D
:104F20005E8B6F8B788F6D8E7E8E8F8E98A2698E42
:104F30007A8E8B8E9C8E198A1A8A1B8A1C8A60E153
:104F400077E280E090E06D877E878F87988B74E0B2
:104F500089A1872789A733B198A5992311F0AEE0DD
:104F60003A27BEA1B0FF1AC089819A81AB81BC816A
:104F7000680E791E8A1E9B1E161417041804190445
:104F80006CF431FF02C029A504C02EA12E7F2EA3F0
:104F900029A1621873088408950801C029A14EA1AF
:104FA00041FF29C08D819E81AF81B8854D8D5E8D79
:104FB0006F8D78A1480F591F6A1F7B1F4D8F5E8F21
:104FC0006F8F78A31416150616061706A4F432FF81
:104FD00003C058E0252703C06EA16D7F6EA38D8DA1
:104FE0009E8DAF8DB8A182199309A409B5098D8F43
:104FF0009E8FAF8FB8A39EA192FF29C089859A8505
:10500000AB85BC85498D5A8D6B8D7C8D480F591FA2
:105010006A1F7B1F498F5A8F6B8F7C8F1416150662
:1050200016061706C4F433FF03C050E1252703C05A
:105030006EA16B7F6EA3898D9A8DAB8DBC8D82190D
:105040009309A409B509898F9A8FAB8FBC8F9EA154
:10505000992309F46DC08091070684FD69C08BB166
:105060002C71837E282B2BB96091170770E080E0AC
:1050700090E00E944A25A9A1ABB96D897E898F89EC
:10508000988D0E944A25EA14FB040C051D0508F0C2
:1050900062CF2D853E854F8558892A0D3B1D4C1DBD
:1050A0005D1D2D873E874F87588B21326EE4360772
:1050B00060E0460760E0560708F44DCF20523E44BA
:1050C000404050402D873E874F87588B89899A8969
:1050D000AB89BC892AA13BA14CA15DA1820F931F82
:1050E000A41FB51F898B9A8BAB8BBC8B60E077E8D4
:1050F00083E993E029893A894B895C890E9470355C
:10510000C901DA015C016D01AE14BF04C006D1060D
:1051100010F45701680180911707B601A501481BDB
:105120005109610971094D8B5E8B6F8B788F13CF9D
:10513000A9960FB6F894DEBF0FBECDBFCF91DF9119
:105140001F910F91FF90EF90DF90CF90BF90AF90A5
:105150009F908F907F906F905F904F903F902F9097
:105160000895FF920F931F930E943015009133070B
:1051700010913407209135073091360784E061E0C3
:1051800040E00E94A026009133071091340720913F
:1051900035073091360783E061E040E00E94A026A9
:1051A00080913707909138070E94402542E0F42E05
:1051B000FA9400912F071091300720913107309118
:1051C000320787E060E041E00E94A0268091370727
:1051D000909138070E94402581E0F816A1F40091D3
:1051E0002F0710913007209131073091320787E067
:1051F00061E040E00E94A026809137079091380737
:105200000E944025D5CFFF2099F60E943A161F91A3
:105210000F91FF9008951F920F920FB60F921124D5
:105220002F933F934F935F936F937F938F939F93AE
:10523000AF93BF93EF93FF9380910606863059F0AA
:105240008091070685FD07C00E940C048091070627
:10525000806480930706FF91EF91BF91AF919F917A
:105260008F917F916F915F914F913F912F910F900F
:105270000FBE0F901F9018958F929F92AF92BF9282
:10528000CF92DF92EF92FF920F931F93DF93CF9312
:10529000CDB7DEB72A970FB6F894DEBF0FBECDBFED
:1052A0007B018C0120E030E040E050E00E9478314A
:1052B00088233CF48DE20E94B71117FB109517F973
:1052C0001095A0903E07DA2C0CC0C801B70120E071
:1052D00030E048EC52E40E9458347B018C018EEFA0
:1052E000D80EE1E0ED1588F3A0FE0AC0C801B701B1
:1052F00020E030E040E251E40E9458347B018C0110
:10530000C801B70120E030E040E05FE30E949F3039
:105310000E94E7316B017C019E012F5F3F4FF90135
:10532000EA0DF11D8EE28083BB2449011EC0BA1430
:1053300009F4B39484010B0D111DC701B6012AE0D5
:1053400030E040E050E00E947035605DF80160831D
:10535000B394C701B6012AE030E040E050E00E947B
:105360007035C901DA016C017D01C114D104E10479
:10537000F104E9F606C0FC01EB0DF11D2083B394A6
:1053800003C0CE01019620E3BA14A8F3BA1489F43D
:105390008B2D8F5FFE01E80FF11D90E39183B82EF6
:1053A000B39407C0FE01EB0DF11D80810E94B7117F
:1053B000BA94BB20B9F72A960FB6F894DEBF0FBE99
:1053C000CDBFCF91DF911F910F91FF90EF90DF90B4
:1053D000CF90BF90AF909F908F9008958F929F92A3
:1053E000BF92CF92DF92EF92FF920F931F93DF93C2
:1053F000CF93CDB7DEB72A970FB6F894DEBF0FBEB6
:10540000CDBF7B018C0197FF0BC08DE20E94B711CD
:1054100010950095F094E094E11CF11C011D111D04
:1054200067017801C114D104E104F10421F480E39F
:105430000E94B7112FC0BB244E010894811C911CFF
:1054400084010B0D111DC701B6012AE030E040E0D8
:1054500050E00E947035605DF8016083B394C7012D
:10546000B6012AE030E040E050E00E947035C9010A
:10547000DA016C017D01C114D104E104F10401F7EA
:1054800007C0FE01EB0DF11D80810E94B711BA9497
:10549000BB20B9F72A960FB6F894DEBF0FBECDBF7A
:1054A000CF91DF911F910F91FF90EF90DF90CF9000
:1054B000BF909F908F9008950F931F93DF93CF938A
:1054C000CDB7DEB728970FB6F894DEBF0FBECDBFBD
:1054D000982FFE0131969E01275F3F4F892F8170E3
:1054E00081939695E217F307C9F78E01085F1F4F66
:1054F000F8018081805D0E94B711015010400C17A7
:105500001D07B1F728960FB6F894DEBF0FBECDBFCA
:10551000CF91DF911F910F910895CF93DF93EC010D
:1055200002C00E94B711FE01219684918823C9F719
:10553000DF91CF910895CF93DF93EC0103C02196C3
:105540000E94B71188818823D1F7DF91CF91089508
:105550008AE694E00E948D2A089588E995E00E94E9
:105560008D2A08951F93182F82E096E00E948D2ABD
:10557000133091F0143028F4113041F01230B1F4AE
:1055800008C0143061F0153089F40CC080EF95E04C
:105590000BC08CED95E008C08AEC95E005C082EC6C
:1055A00095E002C089EB95E00E948D2A85EB95E09D
:1055B0000E948D2A1F9108951F93182F882319F494
:1055C0008BE297E050C083E297E00E948D2A17306B
:1055D00091F1183070F4133011F1143028F41130B7
:1055E000C1F01230F1F518C01530F9F0163000F5A1
:1055F00019C01A3049F11B3028F41830F9F019306D
:1056000081F51FC01C3031F11C3008F11D3049F507
:1056100024C081E197E023C089EF96E020C083EEAB
:1056200096E01DC084ED96E01AC08EEB96E017C0A0
:105630008CEA96E014C08BE996E011C08FE896E002
:105640000EC080E896E00BC08FE596E008C080E5CC
:1056500096E005C085E496E002C087E396E00E94EC
:105660008D2A84E396E00E948D2A1F910895AF92BF
:10567000BF92CF92DF92EF92FF920F931F93DF932F
:10568000CF93CDB7DEB768970FB6F894DEBF0FBEE5
:10569000CDBFDE011196E8E0F6E08CE001900D92BE
:1056A0008150E1F7809106068430C9F0853038F4E6
:1056B000823079F0833080F4882341F01DC0863039
:1056C000A1F0863078F08730B9F412C08CE291E016
:1056D00011C085E291E00EC080E291E00BC08AE14A
:1056E00091E008C084E191E005C08DE091E002C046
:1056F00086E091E00E948D2A8FEF90E00E948D2A33
:105700008DE0E82EF12CEC0EFD1E670100E010E0AC
:105710005E010894A11CB11CF501E00FF11F60812E
:105720007181828193810E941A32F801E65FF84FFD
:1057300020813181428153810E947F319B01AC01E4
:10574000F601608371838283938380912D0780FFAC
:105750000DC0CA01B9012BE832E441E25DE30E94C9
:105760005834F6016083718382839383F6016191DB
:105770007191819191916F010E943C298DEF90E090
:105780000E948D2A0C5F1F4F0C30110529F687EF00
:1057900090E00E948D2A02E316E0DD2480912D071F
:1057A00080FF1BC0F8016081718182819381248513
:1057B0003585468557850E949F302BE832E441E2CB
:1057C0005DEB0E9458349B01AC01F701608171814F
:1057D000828193810E949F3014C0F80160817181A1
:1057E0008281938124853585468557850E949F3027
:1057F0009B01AC01F70160817181828193810E94DC
:105800009E30F7016083718382839383F701608107
:105810007181828193810E943C29F2E0DF1621F0A0
:1058200085EF90E00E948D2AD39484E090E0E80E0A
:10583000F91E0C5F1F4F93E0D91609F0AFCF81EF2F
:1058400090E00E948D2A68960FB6F894DEBF0FBED6
:10585000CDBFCF91DF911F910F91FF90EF90DF901F
:10586000CF90BF90AF90089580911606823091F04E
:10587000833028F4882341F08130B1F408C08330AC
:1058800061F0843089F40CC085EA91E00BC081EAB4
:1058900091E008C08DE991E005C089E991E002C07E
:1058A00084E991E00E948D2A81E991E00E948D2A8D
:1058B0006091310670E06A5C7F4F882777FD8095A4
:1058C000982F0E94EE2980912E06882351F4809112
:1058D0002F06813019F48CE891E005C087E891E04B
:1058E00002C082E891E00E948D2A809118068823E8
:1058F00019F08DE791E002C088E791E00E948D2ABF
:1059000080911906882319F083E791E002C08EE6A2
:1059100091E00E948D2A80911706882319F089E66C
:1059200091E002C084E691E00E948D2A80911A06DF
:10593000813041F0813018F0823059F406C080E6A1
:1059400091E005C08CE591E002C088E591E00E94FD
:105950008D2A80911B06882359F0813019F08F3FE2
:1059600059F403C084E591E005C080E591E002C0F0
:105970008CE491E00E948D2A80911C06882319F006
:10598000813041F403C088E491E002C084E491E0F6
:105990000E948D2A81E491E00E948D2A60912D065B
:1059A00070E080E090E00E94EE298EE391E00E949A
:1059B0008D2A80911806882379F060911D067091D8
:1059C0001E0680911F06909120062BE832E441E2EA
:1059D0005DE30E94583408C060911D0670911E0658
:1059E00080911F06909120060E943C298AE391E055
:1059F0000E948D2A0895CF92DF92EF92FF920F932B
:105A00001F93E82E6B0187E391E00E948D2AFF240B
:105A100000E010E0C801B7010E94EE2985E391E0A3
:105A20000E948D2AC6010E949B2A82E391E00E9477
:105A30008D2A1F910F91FF90EF90DF90CF900895E6
:105A4000CF92DF92EF92FF920F931F93DF93CF934A
:105A5000CDB7DEB72C970FB6F894DEBF0FBECDBF23
:105A6000FF246E010894C11CD11C8F2DB6010E9429
:105A7000E21C882321F48AE00E94DC2A90C08BED8E
:105A800091E00E948D2A83E0F816E9F08F1530F03E
:105A9000E1E0FE1691F0EF1598F00CC0F5E0FF166E
:105AA000C1F0FF1698F086E0F816B1F0E7E0FE16B8
:105AB000D1F415C087ED91E014C083ED91E011C0E1
:105AC0008FEC91E00EC08BEC91E00BC087EC91E085
:105AD00008C083EC91E005C08FEB91E002C08BEB36
